:10000000B8EF68F00000000090EF69F00000000019
:0C001000000000000000000047EF69F055
:08001C0054C200F0003A12008A
:10002400020154B102D0809801D0808854B302D028
:10003400809401D0808454B502D0809201D0808213
:1000440054B702D0809001D08080000000008086E8
:0C005400030E0D6E0D2EFED780961200DC
:100060008494630E0D6E0D2EFED700000000020179
:10007000525302E0848401D084940000809653C2DD
:1000800054F2CCDF00C054F2CDDF53C254F2CADFC9
:0200900012005C
:100092000201516B958C016A080E015C10E2513726
:1000A2005191838E030E0D6E0D2EFED783BC5181AE
:1000B200839E030E0D6E0D2EFED7012AEDD7959C61
:1000C20050B102D0838C01D0839C0000838E030E3A
:0E00D2000D6E0D2EFED7839E51C200F012005F
:1000E000016A080E015C15E2020150BF02D0839C38
:1000F00001D0838C838E030E0D6E02010D2EFDD771
:1001000050375091839E030E0D6E0D2EFED7012A9F
:10011000E8D7958C0000838E030E0D6E0D2EFED752
:1001200083BC02D0019001D00180839E959C000E7B
:0801300001B0010E006E120087
:10013800958C958E030E0D6E0D2EFED7959C839C87
:0E014800030E0D6E0D2EFED7959E839E1200A7
:100156000B840BAEB6EF00F0010E036E026A016A65
:0A016600006A0A360232FF0E120092
:080170000AAE029E000E12000F
:100178000B820BAEC6EF00F00368026801680068E6
:080188000A360232FF0E1200DC
:10019000959C839C030E0D6E0D2EFED7958E030E3F
:0A01A0000D6E0D2EFED7958C120097
:1001AA00086A080E0C6E003408360450085ED8B08F
:0E01BA0002D00826D89000360C2EF5D7120081
:0E01C800026A016A006A086A036A000E1200E9
:1001D60002015051010A02E1506B13D05051020A3C
:1001E60003E1400E506F0DD05051030A03E1140E87
:1001F600506F07D05051040A03E1540E506F01D0DE
:10020600506B5105006E5051002600C050F2008E12
:0E02160000C050F2526B00C053F21FDF120006
:080224000B6A0B86FF0E1200AD
:10022C0002013B6B36C250F237C251F2CEDF3B516A
:10023C003825F66E000E3921F76E000E3A21F86E55
:10024C000900F5CF00F0005211E0010E526F3B5146
:10025C003825F66E000E3921F76E000E3A21F86E35
:0E026C000900F5CF53F2F6DE3B2BE1D712006E
:10027A000C6A0E6A0250D8A456EF01F001C002F0CF
:10028A0000C001F0006A0E860250D8A456EF01F0B1
:10029A0001C002F0016A0E960E880250D8B468EFC7
:1002AA0001F00E50035ED8A4D8A06DEF01F0D890EB
:1002BA0002BE72EF01F0003601360236032E5DEF00
:1002CA0001F06DEF01F0010E0C6E79DF75EF01F0B0
:1002DA00020E0C6E3BDF75EF01F0040E0C6E43DF6D
:0202EA00120000
:1002EC000CB0B8EF01F00CA25EEF02F00E6A000E3B
:1002FC000264CFEF01F0F00E0214D8A49AEF01F0D3
:10030C00023A01380F0B02260138F00B016E00384F
:10031C000F0B01260038F00B006E08380F0B00266F
:10032C000838F00B086E0E84D89002BEB3EF01F0C3
:10033C0008360036013602360E2A02BEB3EF01F043
:10034C0008360036013602360E2A02BEB3EF01F033
:10035C0008360036013602360E2A0E50036454EF6E
:10036C0002F0035E0BBC08AE59EF02F0D880800E91
:10037C0008640030000E002201220222D8A059EF9E
:10038C0002F0023201320032034A5EEF02F059EF02
:10039C0002F001C002F000C001F008C000F0086AD1
:1003AC00000E0E86026406EF02F0F00E0214D8A4C2
:1003BC00EEEF01F0023A01380F0B02260138F00B78
:1003CC00016E00380F0B01260038F00B006E0E8406
:1003DC00D89002BEB3EF01F00036013602360E2A79
:1003EC0002BEB3EF01F00036013602360E2A02BE11
:1003FC00B3EF01F00036013602360E2AB3EF01F0EE
:10040C0001C002F000C001F0006A000E0E960E88CA
:10041C00026433EF02F0F00E0214D8A41EEF02F0C7
:10042C00023A01380F0B02260138F00B016E0E84D4
:10043C00D89002BEB3EF01F0013602360E2A02BE8E
:10044C00B3EF01F0013602360E2A02BEB3EF01F013
:10045C00013602360E2AB3EF01F001C002F0016A38
:10046C00000E0E86026463EF02F0F00E0214D8A4A4
:10047C0042EF02F0023A0E84D89002BEB3EF01F0C4
:10048C0002360E2A02BEB3EF01F002360E2A02BE6D
:10049C00B3EF01F002360E2AB3EF01F0010E0C6E31
:1004AC0054DE66EF02F0020E0C6E5CDE66EF02F0BC
:1004BC00040E0C6E5BDE66EF02F0080E0C6E7EDE38
:0204CC0012001C
:1004CE000B800BAE73EF02F0026A0AAEFF0E026EE5
:0C04DE00016E006E0A360232FF0E1200A2
:1004EA0002013A6B36C250F237C251F26FDE3A510C
:1004FA003825E96E000E3921EA6EEE520DE0010E42
:10050A00526F3A513825E96E000E3921EA6EEECF64
:0A051A0053F2A1DD3A2BEBD71200DB
:100524000201396B3A6B3B6B3C6B3D6B3E6B3F6B33
:10053400406B416B426B436B446B456B466B476B43
:10054400486B496B4A6B4B6B4C6B010E5A6E3851BE
:10055400010A37E1EFDDA00E506FC0DD000E02018D
:100564003615036E3751FF0B046E04C000F0016AA8
:1005740000C050F2B3DDFF0E02013615506FAEDD40
:10058400D9DDA00E5A100201506FA8DD0201506B94
:100594007EDD00C039F2000E3A6F3B6F3C6FF6DD32
:1005A40039C249F23AC24AF23BC24BF23CC24CF263
:1005B40039C200F03AC201F03BC202F03CC203F07F
:1005C4006FD13851020AD8A489D0B4DDA00E506F7F
:1005D40085DD000E02013615036E3751FF0B046EE4
:1005E40004C000F0016A00C050F278DDFF0E020181
:1005F4003615506F73DD9EDDA00E5A100201506F48
:100604006DDD02014D6B800E4D19006E800E020AE5
:10061400005C44E24D51010A20E14DC200F0000E9D
:100624004DBFFF0E016E003600900136003600907B
:100634000136390E00244E6F020E01204F6F506BAD
:1006440026DD4EC2E1FF4FC2E2FF00C0E6FF000E0E
:10065400E66EE66EE66E9ADD1FD04DC200F0000E27
:100664004DBFFF0E016E003600900136003600903B
:100674000136390E00244E6F020E01204F6F010E19
:10068400506F05DD4EC2E1FF4FC2E2FF00C0E6FF3E
:10069400000EE66EE66EE66E4D2BB5D739C249F212
:1006A4003AC24AF23BC24BF23CC24CF23FC203F0A4
:1006B4003EC202F03DC201F0006A395100123A51C3
:1006C40001123B5102123C51031200C049F201C015
:1006D4004AF202C04BF203C04CF2E2D03851040A91
:1006E400D8A4DED027DDA00E506FF8DC000E020186
:1006F4003615036E3751FF0B046E04C000F0016A17
:1007040000C050F2EBDCFF0E02013615506FE6DC40
:1007140011DDA00E5A100201506FE0DC02014D6B96
:10072400800E4D19006E800E040A005C44E24D51A7
:10073400030A20E14DC200F0000E4DBFFF0E016E12
:10074400003600900136003600900136390E002440
:100754004E6F020E01204F6F506B99DC4EC2E1FFC9
:100764004FC2E2FF00C0E6FF000EE66EE66EE66EE4
:100774000DDD1FD04DC200F0000E4DBFFF0E016E07
:10078400003600900136003600900136390E002400
:100794004E6F020E01204F6F010E506F78DC4EC277
:1007A400E1FF4FC2E2FF00C0E6FF000EE66EE66E18
:1007B400E66E4D2BB5D74D6B800E4D19006E800E35
:1007C400040A005C64E24D51000A1BE14DC200F0D2
:1007D400000E4DBFFF0E016E00360090013600364C
:1007E40000900136390E0024E96E020E0120EA6EF3
:1007F400EECF49F2EECF4AF2EECF4BF2EECF4CF20F
:1008040044D04DC200F0000E4DBFFF0E016E003605
:1008140000900136003600900136390E0024E96E4E
:10082400020E0120EA6EEECF05F0EECF06F0EECF19
:1008340007F0EECF08F0030E026E4DC200F0000E7A
:100844004DBFFF0E016E025005E0003600900136E8
:10085400FF0FFAD700C004F005C000F006C001F095
:1008640007C002F008C003F0045007E0003600900F
:10087400013602360336FF0FF8D7005049130150F2
:100884004A1302504B1303504C134D2B95D749C2B6
:1008940000F04AC201F04BC202F04CC203F000D097
:0208A400120040
:1008A6000201396B030E395D0AE239513725E16ED3
:1008B600000E3821E26E200EE66E392BF3D7395141
:1008C6003725E16E000E3821E26EE66A39073951A6
:1008D60037253A6F000E38213B6F0A0E046E36C27A
:1008E60000F060DC08C000F0300E00263AC2E1FFDE
:1008F6003BC2E2FF00C0E6FF0A0E046E36C200F0FD
:1009060051DC00C036F20050000A01E102D039077E
:04091600DED7120016
:10091A00025006180E6E086A096A0B6A03500764C9
:10092A0080EF05F006500A6E068E028E03500B6E9B
:10093A000750036E000E0B64D0EF04F00B50075EF5
:10094A00D8B471EF05F0070E07643FEF05F0075EB4
:10095A0000C008F001C000F002C001F0026A074EB0
:10096A0071EF05F0076414EF05F0075E00C008F0A8
:10097A0001C000F0016A074E71EF05F00764F2EF5B
:10098A0004F0075E00C008F0006A074E71EF05F038
:10099A000764D9EF04F00AC002F005C001F004C0F0
:1009AA0000F0086A9DEF06F0030E0764E4EF04F016
:1009BA00075E08380F0B086E074E71EF05F0D890E6
:1009CA000832074E71EF05F0D8900832074E71EFE2
:1009DA0005F0D890083271EF05F0030E076403EFB3
:1009EA0005F0075E08380F0B086E0038F00B082672
:1009FA0000380F0B006E074E71EF05F0D8900032E9
:100A0A000832074E71EF05F0D89000320832074ECF
:100A1A0071EF05F0D8900032083271EF05F0030E3D
:100A2A0007642BEF05F0075E08380F0B086E0038D5
:100A3A00F00B082600380F0B006E0138F00B002669
:100A4A0001380F0B016E074E71EF05F0D890013295
:100A5A0000320832074E71EF05F0D89001320032A9
:100A6A000832074E71EF05F0D89001320032083291
:100A7A0071EF05F0030E07645CEF05F0075E0838B6
:100A8A000F0B086E0038F00B082600380F0B006EAB
:100A9A000138F00B002601380F0B016E0238F00BFB
:100AAA00012602380F0B026E074E71EF05F0D8903F
:100ABA000232013200320832074E71EF05F0D89047
:100ACA000232013200320832074E71EF05F0D89037
:100ADA000232013200320832096A000E0EAE65EFA8
:100AEA0006F0081E001E011E021E082A002201220C
:100AFA00022265EF06F00750D8A486EF05F09DEFB5
:100B0A0006F0096A02C00AF0028E068E0750035CDC
:100B1A00076ED8B458EF06F0070E076426EF06F002
:100B2A00075E0450096E0550046E0650056E066A8B
:100B3A00074E58EF06F0070E0764FBEF05F0075E55
:100B4A000450096E0550046E056A074E58EF06F008
:100B5A00070E0764D9EF05F0075E0450096E046AB0
:100B6A00074E58EF06F0070E0764C0EF05F00AC0FB
:100B7A0002F09DEF06F0030E0764CBEF05F0075E67
:100B8A0009380F0B096E074E58EF06F0D890093254
:100B9A00074E58EF06F0D8900932074E58EF06F084
:100BAA00D890093258EF06F0030E0764EAEF05F011
:100BBA00075E09380F0B096E0438F00B0926043852
:100BCA000F0B046E074E58EF06F0D8900432093224
:100BDA00074E58EF06F0D89004320932074E58EF04
:100BEA0006F0D8900432093258EF06F0030E076473
:100BFA0012EF06F0075E09380F0B096E0438F00B86
:100C0A00092604380F0B046E0538F00B0426053844
:100C1A000F0B056E074E58EF06F0D89005320432D6
:100C2A000932074E58EF06F0D890053204320932DD
:100C3A00074E58EF06F0D89005320432093258EFC1
:100C4A0006F0030E076443EF06F0075E09380F0B40
:100C5A00096E0438F00B092604380F0B046E0538A8
:100C6A00F00B042605380F0B056E0638F00B052627
:100C7A0006380F0B066E074E58EF06F0D89006326C
:100C8A00053204320932074E58EF06F0D890063280
:100C9A00053204320932074E58EF06F0D890063270
:100CAA00053204320932086A000E0EAE65EF06F00C
:100CBA00091E041E051E061E092A042205220622F2
:100CCA00095008260450002205500122065002222B
:100CDA000EBE7CEF06F0D8A08BEF06F0023201328E
:100CEA0000320832033E8BEF06F097EF06F0D8B0D9
:100CFA0091EF06F0000E081E001E011E021E082AB1
:100D0A000022012202220A7E91EF06F0010E0C6EE9
:100D1A0076EC01F09FEF06F0020E0C6E76EC01F015
:100D2A009FEF06F0040E0C6EBCEC00F09FEF06F08D
:060D3A00000E0C6E120019
:100D40000B6A0C6A0A6A0350D8B4EAEF06F0028E06
:100D50008E0E035E03BEB2EF06F0D8B4B2EF06F01B
:100D6000EEEF06F0036C080E035CD8A0C9EF06F0A6
:100D7000036E013602C001F0026A080E035CD8A0BF
:100D8000C9EF06F00136016A0350D8A4D890D3EF1A
:100D900006F00350D8B4D3EF06F0D89002320132F7
:100DA000032ECDEF06F00BBC01A0E0EF06F0D8A0BB
:100DB000E0EF06F0012AD8B4022A02BEFDEF06F0E9
:100DC0000AAE03EF07F0021E011E012AD8B4022A60
:100DD00003EF07F0026A016A03EF07F00B800BAE26
:100DE00007EF07F0026A0AAE07EF07F0FF0E026E88
:100DF000016E0A36023207EF07F0010E0C6E67EC47
:100E000002F009EF07F0000E0C6E09EF07F0FF0E7D
:0C0E10000C6E0150006E0250016E1200CA
:100E1C000B6A0C6A086A0350D8B492EF07F002C050
:100E2C000AF0028E9E0E035E03AE82EF07F0036C97
:100E3C00080E035CD8A04FEF07F0036E083600C015
:100E4C0008F001C000F002C001F0026A080E035C59
:100E5C00D8A04FEF07F0036E083600C008F001C0B1
:100E6C0000F0016A080E035CD8A04FEF07F0036E88
:100E7C00083600C008F0006A080E035CD8A04FEFDB
:100E8C0007F0036E0836086A0350D8A4D8905BEFBD
:100E9C0007F00350D8B45BEF07F0D8900232013260
:100EAC0000320832032E53EF07F00BBC08A06CEF96
:100EBC0007F0D8A06CEF07F0082AD8B4002AD8B4F1
:100ECC00012AD8B4022A02BE96EF07F00AAE92EFBE
:100EDC0007F0021E011E001E081E082AD8B4002AA4
:100EEC00D8B4012AD8B4022A92EF07F0026A016A38
:100EFC00006A086A92EF07F00B800BAE9DEF07F0CB
:100F0C00026A0AAE9DEF07F0026E016E006E086E6B
:100F1C000A3602329DEF07F00C6A000E9EEF07F0C6
:100F2C00010E0C6E000E67EC02F09EEF07F0FF0E48
:100F3C000250036E0150026E0050016E0850006E9C
:020F4C00120091
:100F4E000450000A12E10550000A0FE10650000A93
:100F5E000CE10750000A09E1FF0E006EFF0E016E54
:100F6E007F0E026EFF0E036EA8D0086A096A075044
:100F7E00D8B452EF08F00350D8B457EF08F002502F
:100F8E0006180A6E028E068E0E6A02C008F001C0A6
:100F9E000CF000C00DF004500D5E0550D8A0053CBD
:100FAE000C5E0650D8A0063C085E086A0C6A0D6AF4
:100FBE00D8A0E9EF07F0D8900232013200320832A1
:100FCE00010E0E6E0750035ED8A0F6EF07F07E0EF0
:100FDE000E240326D8B05CEF08F0FCEF07F07E0E6F
:100FEE000E240326D8A061EF08F0180E0B6E0D36F6
:100FFE000C3608360036013602360E360450005EC8
:10100E000550D8A0053C015E0650D8A0063C025EF5
:10101E0006340E120EA017EF08F00D8022EF08F026
:10102E00045000260550D8B0053C01260650D8B015
:10103E00062802260D900B2EFEEF07F048EF08F063
:10104E00D8900036013602360E360450005E05503A
:10105E00D8A0053C015E0650D8A0063C025E0634C0
:10106E000E10010B0D26D8B00C2AD8B4082AD8A41D
:10107E0048EF08F008320C320D32032AD8B45CEF78
:10108E0008F00AAE089E0850026E0C50016E0D500C
:10109E00006E64EF08F0010E12EC01F064EF08F040
:1010AE00020EE4EC00F064EF08F0040EBCEC00F06D
:0C10BE0064EF08F0080EABEC00F012002C
:1010CA000050086E0150006E016A026A036A0B6AD8
:1010DA000C6A960E036E0A6A00C001F008C000F09E
:0A10EA00086A026A3DEC01F01200F2
:1010F4000201526B1DC253F230EC00F00D0E0C6E67
:10110400FB0E0D6E0D2EFED70C2EFCD7000000003A
:021114001200C7
:1011160083A4CED0030E0201366F080E376F8E0EF3
:10112600386F000E396F75EC02F0366B376B020EB6
:10113600386F92EC02F000C0C0F001C0C1F000C0F0
:1011460036F2B40E376F000E386F53EC04F0010E12
:10115600366F0F0E376FB40E386F000E396F75ECA1
:1011660002F0000E366F090E376F020E386F92ECE2
:1011760002F000C0C2F001C0C3F000C036F2B40EE7
:10118600376F000E386F53EC04F0010E366F120EF7
:10119600376FB40E386F000E396F75EC02F0030E20
:1011A600366F000E376F020E386F92EC02F000C0F9
:1011B600D0F001C0D1F000C036F2C40E376F000E79
:1011C600386F53EC04F0020E366F0F0E376FC40EF5
:1011D600386F000E396F75EC02F0000E366F070E91
:1011E600376F020E386F92EC02F000C0B2F001C009
:1011F600B3F000C036F2C40E376F000E386F53ECF2
:1012060004F0020E366F120E376FC40E386F000EE2
:10121600396F75EC02F0050E366F000E376F020E51
:10122600386F92EC02F000C0EEF001C0EFF000C0A3
:1012360036F2940E376F000E386F53EC04F0040E3E
:10124600366F110E376F940E386F000E396F75ECCE
:1012560002F00B0E366F000E376F010E386F92ECF0
:1012660002F000C01DF201C01EF202C01FF203C050
:1012760020F20C0E366F000E376F010E386F92ECAF
:1012860002F01D51002600C093F000C036F2A00EF9
:10129600376F000E386F53EC04F0030E366F120EE4
:1012A600376FA00E386F000E396F75EC02F081D0E3
:1012B60083B47FD00201030E366F080E376FAE0E71
:1012C600386F000E396F75EC02F0366B376B020E15
:1012D600386F92EC02F000C0C0F001C0C1F000C04F
:1012E60036F2B40E376F000E386F53EC04F0010E71
:1012F600366F100E376FB40E386F000E396F75ECFF
:1013060002F0030E366F000E376F020E386F92EC46
:1013160002F000C0D0F001C0D1F000C036F2C40E19
:10132600376F000E386F53EC04F0020E366F100E56
:10133600376FC40E386F000E396F75EC02F0090E68
:10134600366F000E376F020E386F92EC02F000C057
:10135600ACF001C0ADF000C036F2820E376F000E61
:10136600386F53EC04F0040E366F120E376F820E90
:10137600386F000E396F75EC02F00B0E366F000EEB
:10138600376F010E386F92EC02F000C093F000C088
:1013960036F2A00E376F000E386F53EC04F0030ED2
:1013A600366F120E376FA00E386F000E396F75EC60
:1013B60002F00201040E366F0B0E376F1C0E386FEB
:1013C600DB0E396F000E3A6F16EC01F0010E366F28
:1013D6000A0E376F150E386FDB0E396F000E3A6F37
:1013E60016EC01F0020E366F0A0E376F230E386FB9
:1013F600DB0E396F000E3A6F16EC01F0030E366FF6
:10140600010E376F310E386FDB0E396F000E3A6FF3
:1014160016EC01F0030E366F0C0E376F2A0E386F7E
:0E142600DB0E396F000E3A6F16EC01F012006B
:101434000201246B256B266B276B286B296B2A6BA7
:101444002B6B2C6B2D6B2E6B2F6B306B316B326BCC
:10145400336B346B356B5A6AFF0E1F15246F20C231
:1014640025F221C226F222C227F2000E25172617E2
:101474002717000E1F15286FFF0E2015296F21C294
:101484002AF222C22BF2000E2A172B1729C228F2A5
:101494002AC229F22BC22AF2000E2BBFFF0E2B6F99
:1014A400000E1F152C6F000E20152D6FFF0E211539
:1014B4002E6F000E22152F6F2EC22CF22FC22DF28A
:1014C400000E2FBFFF0E2F6F000E1F15306F000E82
:1014D4002015316F000E2115326FFF0E2215336F68
:1014E40033C230F2316B326B336B2351010A39E171
:1014F4000201800E3419006E800E2319005C31E263
:101504009CEC00F0A00E5A10506F70EC00F0000E2E
:1015140002011D15036E1E51FF0B046E04C000F082
:10152400016A00C050F270EC00F0FF0E02011D15BC
:10153400506F70EC00F00201342B24C250F270ECB6
:1015440000F0C8EC00F09CEC00F0A00E0201506F1B
:1015540070EC00F0005201E101D0F5D7C8EC00F0C6
:10156400C7D702012351020A55E10201800E341942
:10157400006E800E2319005C4DE29CEC00F0A00E7E
:101584005A10506F70EC00F0000E02011D15036E2E
:101594001E51FF0B046E04C000F0016A00C050F23B
:1015A40070EC00F0FF0E02011D15506F70EC00F09E
:1015B400800E02013519006E800E2319005C1AE2B8
:1015C40035C200F0000E35BFFF0E016E00360090EC
:1015D4000136003600900136240E0024E96E020E16
:1015E4000120EA6EEECF50F270EC00F00201342BD1
:1015F400352BDED7C8EC00F002019CEC00F0A00E05
:10160400506F70EC00F0005201E101D0F5D7C8EC46
:1016140000F0ABD702012351040A54E10201800E09
:101624003419006E800E2319005C4CE29CEC00F02F
:10163400A00E5A10506F70EC00F0000E02011D1540
:10164400036E1E51FF0B046E04C000F0016A00C05B
:1016540050F270EC00F0FF0E02011D15506F70EC9B
:1016640000F0800E02013419006E800E2319005C14
:1016740019E234C200F0000E34BFFF0E016E0036D2
:1016840000900136003600900136240E0024E96EE5
:10169400020E0120EA6EEECF50F270EC00F002016F
:1016A400342BDFD7C8EC00F002019CEC00F0A00E54
:1016B400506F70EC00F0005201E101D0F5D7C8EC96
:0616C40000F0ACD712009B
:1016CA0002011451060AD8A416D1030E366F010E70
:1016DA00376FA90E386FDA0E396F000E3A6F16ECB3
:1016EA0001F0366B376B020E386F92EC02F000C0D5
:1016FA0037F101C038F1030E366F000E376F020E54
:10170A00386F92EC02F0004A012A00C035F101C09C
:10171A0036F1030E1D6F000E1E6F00C01FF201C0CE
:10172A0020F2000E216F226F020E236F7EDE030E5F
:10173A000201366F000E376F020E386F92EC02F01C
:10174A0000C019F201C01AF202C01BF203C01CF257
:10175A0019C235F11AC236F137C100F038C101F0A9
:10176A00AFDC00C015F201C016F202C017F203C0C6
:10177A0018F219C200F01AC201F0A2DC15C204F074
:10178A0016C205F017C206F018C207F08DEC04F075
:10179A00000E046E000E056E000E066E800E076EB9
:1017AA00A7EC07F000C039F101C03AF102C03BF1E1
:1017BA0003C03CF1090E02011D6F000E1E6F0EECF4
:1017CA0007F000C01FF201C020F202C021F203C0DC
:1017DA0022F2020E236F29DE83A484D0090E0201AD
:1017EA00366F000E376F020E386F92EC02F000C0AF
:1017FA002FF101C030F1070E366F000E376F020E5F
:10180A00386F92EC02F000C02DF101C02EF10050A9
:10181A0001012F25336F01503021346F0201366BDD
:10182A00376B020E386F92EC02F000C015F201C05D
:10183A0016F202C017F203C018F2030E366F000E3A
:10184A00376F020E386F92EC02F0005015270150E4
:10185A0016230250172303501823000E366F090E61
:10186A00376F020E386F92EC02F0005015270150C4
:10187A0016230250172303501823000E366F070E43
:10188A00376F020E386F92EC02F000501525056E84
:10189A0001501621066E02501721076E03501821B7
:1018AA00086E05C000F006C001F007C002F008C0CB
:1018BA0003F00332023201320032039E03BC038E6C
:1018CA0000C031F101C032F1050E1D6F000E1E6F0E
:1018DA0000C01FF201C020F2000E216F226F020E1B
:1018EA00236FA3DD010E02011D6F7AEC08F00101DE
:0818FA003D6B006A00D01200F2
:1019020002011451040A39E1030E366F010E376FDA
:10191200CD0E386FDA0E396F000E3A6F16EC01F009
:1019220081B402D0018001D0019081B002D0D88070
:1019320001D0D89001A003D002E3018001D0019030
:1019420001A00AD0010E1D6F7AEC08F0080E010109
:101952003D6F080E006E11D081A604D081A202D084
:10196200D88001D0D89009E3010E02011D6F7AECF4
:0C19720008F001013D6B006A00D012007B
:10197E0002011451030AD8A414D1030E366F010EBE
:10198E00376F400E386FD70E396F000E3A6F16EC68
:10199E0001F0090E0B6EE10E0C6EB20E0D6E0D2ED9
:1019AE00FED70C2EFCD70B2EFAD70000030E366F87
:1019BE00000E376F020E386F92EC02F000C035F158
:1019CE0001C036F1366B376B020E386F92EC02F0B7
:1019DE00004A012A00C037F101C038F11D6B1E6BA1
:1019EE0000C01FF201C020F2000E216F226F020E06
:1019FE00236F19DD0201366B376B020E386F92ECD6
:101A0E0002F000C037F101C038F165EC08F000C0FB
:101A1E0015F201C016F202C017F203C018F235C15A
:101A2E0000F036C101F065EC08F015C204F016C2E4
:101A3E0005F017C206F018C207F08DEC04F0000E88
:101A4E00046E000E056E000E066E800E076EA7EC7D
:101A5E0007F000C039F101C03AF102C03BF103C0FA
:101A6E003CF1090E02011D6F000E1E6FA0EC06F078
:101A7E0000C01FF201C020F2000E216F226F020E75
:101A8E00236FD1DC83A484D0090E0201366F000EC1
:101A9E00376F020E386F92EC02F000C02FF101C0CA
:101AAE0030F1070E366F000E376F020E386F92EC64
:101ABE0002F000C02DF101C02EF1005001012F25C2
:101ACE00336F01503021346F0201366B376B020ECB
:101ADE00386F92EC02F000C015F201C016F202C08F
:101AEE0017F203C018F2030E366F000E376F020E98
:101AFE00386F92EC02F00050152701501623025059
:101B0E00172303501823000E366F090E376F020E7F
:101B1E00386F92EC02F00050152701501623025038
:101B2E00172303501823000E366F070E376F020E61
:101B3E00386F92EC02F000501525056E01501621FB
:101B4E00066E02501721076E03501821086E05C04D
:101B5E0000F006C001F007C002F008C003F0033227
:101B6E00023201320032039E03BC038E00C031F1FB
:101B7E0001C032F1050E1D6F000E1E6F00C01FF268
:101B8E0001C020F2000E216F226F020E236F4BDC7C
:101B9E00010E02011D6F7AEC08F001013D6B006A27
:041BAE0000D0120051
:101BB20002011451070A3BE1030E366F010E376F23
:101BC200610E386FD50E396F000E3A6F16EC01F0C8
:101BD20081B402D0018001D0019081B802D0D880B6
:101BE20001D0D89001A003D002E3018001D001907E
:101BF20001A00AD0010E1D6F7AEC08F0020E01015D
:101C02003D6F020E006E13D083A804D081A602D0CD
:101C1200D88001D0D8900BE3010E02011D6F7AEC3F
:101C220008F0030E01013D6F030E006E00D012009A
:101C320002011451070A3BE1030E366F010E376FA2
:101C4200740E386FD50E396F000E3A6F16EC01F034
:101C520081B802D0018001D0019081B002D0D88039
:101C620001D0D89001A003D002E3018001D00190FD
:101C720001A00AD0010E1D6F7AEC08F0020E0101DC
:101C82003D6F020E006E13D083A804D081A202D051
:101C9200D88001D0D8900BE3010E02011D6F7AECBF
:101CA20008F0030E01013D6F030E006E00D012001A
:101CB20002011451050A3BE1030E366F010E376F24
:101CC200F40E386FD70E396F000E3A6F16EC01F032
:101CD20083B802D0018001D0019081B602D0D880B1
:101CE20001D0D89001A003D002E3018001D001907D
:101CF20001A00AD0010E1D6F7AEC08F0080E010156
:101D02003D6F080E006E13D081A804D081A402D0CA
:101D1200D88001D0D8900BE3010E02011D6F7AEC3E
:101D220008F0060E01013D6F060E006E00D0120093
:101D320002011451030AD8A417D1030E366F010E03
:101D4200376FAC0E386FD70E396F000E3A6F16EC44
:101D520001F0090E0B6EE10E0C6EB20E0D6E0D2E21
:101D6200FED70C2EFCD70B2EFAD70000030E366FCF
:101D7200000E376F020E386F92EC02F000C035F1A0
:101D820001C036F1366B376B020E386F92EC02F0FF
:101D9200004A012A00C037F101C038F11D6B1E6BE9
:101DA20000C01FF201C020F2000E216F226F020E4E
:101DB200236F1AEC0AF00201366B376B020E386F92
:101DC20092EC02F000C037F101C038F165EC08F086
:101DD20000C015F201C016F202C017F203C018F2D9
:101DE20035C100F036C101F065EC08F015C204F00F
:101DF20016C205F017C206F018C207F08DEC04F007
:101E0200000E046E000E056E000E066E800E076E4A
:101E1200A7EC07F000C039F101C03AF102C03BF172
:101E220003C03CF1090E02011D6F000E1E6FA0ECF3
:101E320006F000C01FF201C020F2000E216F226FD7
:101E4200020E236F1AEC0AF083A485D0090E020158
:101E5200366F000E376F020E386F92EC02F000C040
:101E62002FF101C030F1070E366F000E376F020EF0
:101E7200386F92EC02F000C02DF101C02EF100503B
:101E820001012F25336F01503021346F0201366B6F
:101E9200376B020E386F92EC02F000C015F201C0EF
:101EA20016F202C017F203C018F2030E366F000ECC
:101EB200376F020E386F92EC02F000501527015076
:101EC20016230250172303501823000E366F090EF3
:101ED200376F020E386F92EC02F000501527015056
:101EE20016230250172303501823000E366F070ED5
:101EF200376F020E386F92EC02F000501525056E16
:101F020001501621066E02501721076E0350182148
:101F1200086E05C000F006C001F007C002F008C05C
:101F220003F00332023201320032039E03BC038EFD
:101F320000C031F101C032F1050E1D6F000E1E6F9F
:101F420000C01FF201C020F2000E216F226F020EAC
:101F5200236F1AEC0AF0010E02011D6F7AEC08F0F1
:0A1F620001013D6B006A00D012007F
:101F6C0002011451020A4EE1030E366F010E376F57
:101F7C00550E386FD90E396F000E3A6F16EC01F012
:101F8C0081A804D081A002D0D88001D0D8900AE3D7
:101F9C00010E1D6F7AEC08F0070E01013D6F070E64
:101FAC00006E30D083A804D081A202D0018001D071
:101FBC00019081B802D0D88001D0D89001A003D074
:101FCC0002E3018201D0019281B002D0D88001D00D
:101FDC00D89001A003D002E3018001D0019001B29E
:101FEC0004D001B002D0D89001D0D8800BE3010E00
:101FFC0002011D6F7AEC08F0010E01013D6F010E1C
:06200C00006E00D012007E
:1020120002011451080A4EE1030E366F010E376FAA
:102022008C0E386FD90E396F000E3A6F16EC01F034
:1020320081A604D081A202D0D88001D0D8900AE330
:10204200010E1D6F7AEC08F0050E01013D6F050EC1
:10205200006E30D081A404D081A002D0018001D0D2
:10206200019081B602D0D88001D0D89001A003D0CF
:1020720002E3018201D0019281B202D0D88001D064
:10208200D89001A003D002E3018001D0019001B2F7
:1020920004D001B002D0D89001D0D8800BE3010E59
:1020A20002011D6F7AEC08F0040E01013D6F040E6F
:0620B200006E00D01200D8
:1020B80002011451060AD8A41CD1030E366F010E72
:1020C800376FAD0E386FD90E396F000E3A6F16ECB8
:1020D80001F0366B376B020E386F92EC02F000C0DD
:1020E80037F101C038F1030E366F000E376F020E5C
:1020F800386F92EC02F0004A012A00C035F101C0A5
:1021080036F1030E1D6F000E1E6F00C01FF201C0D6
:1021180020F2000E216F226F020E236F1AEC0AF0D4
:10212800030E0201366F000E376F020E386F92EC05
:1021380002F000C019F201C01AF202C01BF203C07B
:102148001CF219C235F11AC236F137C100F038C194
:1021580001F065EC08F000C015F201C016F202C0EB
:1021680017F203C018F219C200F01AC201F065ECA8
:1021780008F015C204F016C205F017C206F018C21E
:1021880007F08DEC04F0000E046E000E056E000ED4
:10219800066E800E076EA7EC07F000C039F101C08B
:1021A8003AF102C03BF103C03CF1090E02011D6F78
:1021B800000E1E6FA0EC06F000C01FF201C020F256
:1021C800000E216F226F020E236F1AEC0AF083A40F
:1021D80085D0090E0201366F000E376F020E386F78
:1021E80092EC02F000C02FF101C030F1070E366FFB
:1021F800000E376F020E386F92EC02F000C02DF11E
:1022080001C02EF1005001012F25336F01503021FC
:10221800346F0201366B376B020E386F92EC02F0A6
:1022280000C015F201C016F202C017F203C018F27E
:10223800030E366F000E376F020E386F92EC02F005
:102248000050152701501623025017230350182356
:10225800000E366F090E376F020E386F92EC02F0DF
:102268000050152701501623025017230350182336
:10227800000E366F070E376F020E386F92EC02F0C1
:1022880000501525056E01501621066E02501721C3
:10229800076E03501821086E05C000F006C001F053
:1022A80007C002F008C003F00332023201320032E4
:1022B800039E03BC038E00C031F101C032F1050E4C
:1022C8001D6F000E1E6F00C01FF201C020F2000E2D
:1022D800216F226F020E236F1AEC0AF0010E020121
:1022E8001D6F7AEC08F00001E36BE56BE46B006AA4
:0422F80000D0120000
:1022FC0002011451040A39E1030E366F010E376FD7
:10230C00190E386FDA0E396F000E3A6F16EC01F0B9
:10231C0081B802D0018001D0019081B002D0D88068
:10232C0001D0D89001A003D002E3018001D001902C
:10233C0001A00AD0010E1D6F7AEC08F0080E010105
:10234C003D6F080E006E11D083A804D081A202D07C
:10235C00D88001D0D89009E3010E02011D6F7AECF0
:0C236C0008F001013D6B006A00D0120077
:1023780002011451010A39E1030E366F010E376F5D
:10238800580E386FDA0E396F000E3A6F16EC01F0FE
:1023980081A404D081A002D0D88001D0D89008E3CD
:1023A800010E1D6F7AEC08F001013D6B006A1DD02B
:1023B80081B602D0018001D0019081B202D0D880CC
:1023C80001D0D89001A003D002E3018001D0019090
:1023D80001A00BD0010E02011D6F7AEC08F0020E6D
:0C23E80001013D6F020E006E00D01200DB
:1023F40002011451000A3BE18BEC08F081B402D0D5
:10240400018001D0019081B002D0D88001D0D89051
:1024140001B003D002E2019001D0018001A00AD0F2
:10242400010E1D6F7AEC08F0010E01013D6F010EE3
:10243400006E1DD081B602D0018001D0019081B21E
:1024440002D0D88001D0D89001B003D002E201902C
:1024540001D0018001A00BD0010E02011D6F7AECA6
:1024640008F0040E01013D6F040E006E00D012004E
:1024740002011451030AD8A417D1030E366F010EBA
:10248400376F520E386FD70E396F000E3A6F16EC55
:1024940001F0090E0B6EE10E0C6EB20E0D6E0D2ED8
:1024A400FED70C2EFCD70B2EFAD70000030E366F86
:1024B400000E376F020E386F92EC02F000C035F157
:1024C40001C036F1366B376B020E386F92EC02F0B6
:1024D400004A012A00C037F101C038F11D6B1E6BA0
:1024E40000C01FF201C020F2000E216F226F020E05
:1024F400236F1AEC0AF00201366B376B020E386F49
:1025040092EC02F000C037F101C038F165EC08F03C
:1025140000C015F201C016F202C017F203C018F28F
:1025240035C100F036C101F065EC08F015C204F0C5
:1025340016C205F017C206F018C207F08DEC04F0BD
:10254400000E046E000E056E000E066E800E076E01
:10255400A7EC07F000C039F101C03AF102C03BF129
:1025640003C03CF1090E02011D6F000E1E6FA0ECAA
:1025740006F000C01FF201C020F2000E216F226F8E
:10258400020E236F1AEC0AF083A485D0090E02010F
:10259400366F000E376F020E386F92EC02F000C0F7
:1025A4002FF101C030F1070E366F000E376F020EA7
:1025B400386F92EC02F000C02DF101C02EF10050F2
:1025C40001012F25336F01503021346F0201366B26
:1025D400376B020E386F92EC02F000C015F201C0A6
:1025E40016F202C017F203C018F2030E366F000E83
:1025F400376F020E386F92EC02F00050152701502D
:1026040016230250172303501823000E366F090EA9
:10261400376F020E386F92EC02F00050152701500C
:1026240016230250172303501823000E366F070E8B
:10263400376F020E386F92EC02F000501525056ECC
:1026440001501621066E02501721076E03501821FF
:10265400086E05C000F006C001F007C002F008C013
:1026640003F00332023201320032039E03BC038EB4
:1026740000C031F101C032F1050E1D6F000E1E6F56
:1026840000C01FF201C020F2000E216F226F020E63
:10269400236F1AEC0AF0010E02011D6F7AEC08F0A8
:0A26A40001013D6B006A00D0120036
:1026AE0002011451080A4EE1030E366F010E376F08
:1026BE004D0E386FD80E396F000E3A6F16EC01F0D2
:1026CE0083A804D081A602D0D88001D0D8900AE386
:1026DE00010E1D6F7AEC08F0050E01013D6F050E1F
:1026EE00006E30D081A804D081A402D0018001D028
:1026FE00019083B802D0D88001D0D89001A003D029
:10270E0002E3018201D0019281B602D0D88001D0BD
:10271E00D89001A003D002E3018001D0019001B254
:10272E0004D001B002D0D89001D0D8800BE3010EB6
:10273E0002011D6F7AEC08F0040E01013D6F040ECC
:06274E00006E00D0120035
:1027540002011451040A39E1030E366F010E376F7A
:10276400E80E386FDA0E396F000E3A6F16EC01F08E
:1027740081B802D0018001D0019081B402D0D88008
:1027840001D0D89001A003D002E3018001D00190D0
:1027940001A00AD0010E1D6F7AEC08F0080E0101A9
:1027A4003D6F080E006E11D083A804D081A602D01C
:1027B400D88001D0D89009E3010E02011D6F7AEC94
:0C27C40008F001013D6B006A00D012001B
:1027D00002011451050A3BE1030E366F010E376FFB
:1027E0002A0E386FD80E396F000E3A6F16EC01F0D2
:1027F00083B802D0018001D0019081B202D0D8808C
:1028000001D0D89001A003D002E3018001D0019053
:1028100001A00AD0010E1D6F7AEC08F0080E01012C
:102820003D6F080E006E13D081A804D081A002D0A5
:10283000D88001D0D8900BE3010E02011D6F7AEC15
:1028400008F0060E01013D6F060E006E00D012006A
:1028500002011451080AD8A46AD0030E366F010E83
:10286000376F6B0E386FD90E396F000E3A6F16EC5A
:1028700001F083A804D081A202D0D88001D0D890E2
:102880000AE3010E1D6F7AEC08F0050E01013D6FA1
:10289000050E006E4CD081A804D081A002D0018426
:1028A00001D0019483B802D0D88001D0D89001A47F
:1028B00003D002E3018201D0019201B402D0019061
:1028C00001D0018081B602D0D88001D0D89001A07B
:1028D00003D002E3018001D0019001B204D001B025
:1028E00002D0019201D0018201B402D0019001D046
:1028F000018081B202D0D88001D0D89001A003D04D
:1029000002E3018001D0019001B204D001B002D0F5
:10291000D89001D0D8800BE3010E02011D6F7AEC34
:1029200008F0040E01013D6F040E006E00D012008D
:1029300002011451050A3BE1030E366F010E376F99
:10294000880E386FD70E396F000E3A6F16EC01F013
:1029500081B602D0018001D0019081B202D0D8802E
:1029600001D0D89001A003D002E3018001D00190F2
:1029700001A00AD0010E1D6F7AEC08F0080E0101CB
:102980003D6F080E006E13D081A404D081A002D048
:10299000D88001D0D8900BE3010E02011D6F7AECB4
:1029A00008F0060E01013D6F060E006E00D0120009
:1029B00002011451060AD8A41AD1030E366F010E73
:1029C000376F340E386FDA0E396F000E3A6F16EC2F
:1029D00001F0366B376B020E386F92EC02F000C0DC
:1029E00037F101C038F1030E366F000E376F020E5B
:1029F000386F92EC02F0004A012A00C035F101C0A4
:102A000036F1030E1D6F000E1E6F00C01FF201C0D5
:102A100020F2000E216F226F020E236F1AEC0AF0D3
:102A2000030E0201366F000E376F020E386F92EC04
:102A300002F000C019F201C01AF202C01BF203C07A
:102A40001CF219C235F11AC236F137C100F038C193
:102A500001F065EC08F000C015F201C016F202C0EA
:102A600017F203C018F219C200F01AC201F065ECA7
:102A700008F015C204F016C205F017C206F018C21D
:102A800007F08DEC04F0000E046E000E056E000ED3
:102A9000066E800E076EA7EC07F000C039F101C08A
:102AA0003AF102C03BF103C03CF1090E02011D6F77
:102AB000000E1E6FA0EC06F000C01FF201C020F255
:102AC000000E216F226F020E236F1AEC0AF083A40E
:102AD00085D0090E0201366F000E376F020E386F77
:102AE00092EC02F000C02FF101C030F1070E366FFA
:102AF000000E376F020E386F92EC02F000C02DF11D
:102B000001C02EF1005001012F25336F01503021FB
:102B1000346F0201366B376B020E386F92EC02F0A5
:102B200000C015F201C016F202C017F203C018F27D
:102B3000030E366F000E376F020E386F92EC02F004
:102B40000050152701501623025017230350182355
:102B5000000E366F090E376F020E386F92EC02F0DE
:102B60000050152701501623025017230350182335
:102B7000000E366F070E376F020E386F92EC02F0C0
:102B800000501525056E01501621066E02501721C2
:102B9000076E03501821086E05C000F006C001F052
:102BA00007C002F008C003F00332023201320032E3
:102BB000039E03BC038E00C031F101C032F1050E4B
:102BC0001D6F000E1E6F00C01FF201C020F2000E2C
:102BD000216F226F020E236F1AEC0AF0010E020120
:102BE0001D6F7AEC08F001013D6B006A00D0120005
:102BF00002011451080AD8A460D0030E366F010EEA
:102C0000376F3C0E386FD80E396F000E3A6F16ECE6
:102C100001F083A804D081A602D0D88001D0D8903A
:102C20000AE3010E1D6F7AEC08F0050E01013D6FFD
:102C3000050E006E42D081A804D081A402D0018488
:102C400001D0019401A404D081A002D0018001D060
:102C5000019083B802D0D88001D0D89001A003D0D1
:102C600002E3018201D0019201B402D0D89001D0D8
:102C7000D88004E381A002D0018001D0019081B608
:102C800002D0D88001D0D89001A003D002E3018007
:102C900001D0019001B204D001B002D0D89001D08F
:102CA000D8800BE3010E02011D6F7AEC08F0040ED0
:0C2CB00001013D6F040E006E00D0120008
:102CBC0002011451010AD8A496D0030E366F010EEE
:102CCC00376FF50E386FD90E396F000E3A6F16EC60
:102CDC0001F083B802D0018001D0019081B602D0FE
:102CEC00D88001D0D89001B003D002E2019001D07D
:102CFC00018081B202D0D88001D0D89001B003D02D
:102D0C0002E2019801D0018881B802D0018601D07D
:102D1C00019681B402D0018001D0019001A604D0AB
:102D2C0001A002D0018201D0019281B002D00184B5
:102D3C0001D0019401A004D001A402D0D88001D00C
:102D4C00D89001B203D002E2019201D0018201B607
:102D5C0002D0019001D0018001B402D0D89001D0F2
:102D6C00D88001A003D002E3018001D0019001B210
:102D7C0004D001B002D0D89001D0D88001A803D0E3
:102D8C0002E3018001D0019001A006D0020E0001E7
:102D9C00E46F020E006E27D081A804D081A402D06B
:102DAC00018001D0019081A404D081A002D0D880F0
:102DBC0001D0D89001B003D002E2019001D0018083
:102DCC0081A804D081A002D0D88001D0D89001B0C5
:102DDC0003D002E2019001D0018001A004D00001D7
:082DEC00E46B006A00D0120044
:102DF40002011451000AD8A4A4D08BEC08F081B8C5
:102E040002D0018001D0019081B402D0D88001D0D9
:102E1400D89001B003D002E2019001D0018081B0CA
:102E240002D0D88001D0D89001B003D002E2019240
:102E340001D0018283A804D081A602D0018001D0F0
:102E4400019081A604D081A202D0D88001D0D8906C
:102E540001B003D002E2019001D0018083A804D024
:102E640081A202D0D88001D0D89001B003D002E270
:102E7400019001D0018001A204D001A002D0D88029
:102E840001D0D8900CE30001DE6B010EE36F010E5C
:102E9400E66FE56B010EE46F010E006E52D083B84D
:102EA40002D0018001D0019081B602D0D88001D037
:102EB400D89001B003D002E2019001D0018081B228
:102EC40002D0D88001D0D89001B003D002E20192A0
:102ED40001D0018281A804D081A402D0018001D054
:102EE400019081A404D081A002D0D88001D0D890D0
:102EF40001B003D002E2019001D0018081A804D086
:102F040081A002D0D88001D0D89001B003D002E2D1
:102F1400019001D0018001A204D001A002D0D88088
:102F240001D0D8900CE30001DE6B010EE36F010EBB
:102F3400E56FE66B040EE46F040E006E02D0006AC7
:042F440000D01200A7
:102F480002011451040AD8A462D0030E366F010E90
:102F5800376F460E386FDA0E396F000E3A6F16EC7F
:102F680001F081B802D0018601D0019681B402D067
:102F7800018001D0019001A604D001A002D00182F5
:102F880001D0019281B002D0018401D0019401A046
:102F980004D001A402D0D88001D0D89001B203D0C7
:102FA80002E2019201D0018201B602D0019001D063
:102FB800018001B402D0D89001D0D88001A003D0FC
:102FC80002E3018001D0019001B204D001B002D027
:102FD800D89001D0D8800AE3010E1D6F7AEC08F072
:102FE800080E01013D6F080E006E11D083A804D0B1
:102FF80081A602D0D88001D0D89009E3010E020141
:103008001D6F7AEC08F001013D6B006A00D01200D8
:1030180002011451070A46E1030E366F010E376F9D
:103028003B0E386FD50E396F000E3A6F16EC01F073
:1030380081B402D0018001D0019081B802D0D8803B
:1030480001D0D89001A003D002E3018001D0019003
:1030580081B002D0D88001D0D89001A003D002E37B
:10306800018001D0019001A00AD0010E1D6F7AECF9
:1030780008F0020E01013D6F020E006E13D083A806
:1030880004D081A602D0D88001D0D8900BE3010EDD
:1030980002011D6F7AEC08F0030E01013D6F030E6B
:0630A800006E00D01200D2
:1030AE0002011451010A40E1030E366F010E376F13
:1030BE006E0E386FD80E396F000E3A6F16EC01F0A7
:1030CE0081A804D081A402D0D88001D0D89004E386
:1030DE0081A002D0018001D0019001A008D0010E84
:1030EE001D6F7AEC08F001013D6B006A1DD083B8AC
:1030FE0002D0018001D0019081B602D0D88001D0DB
:10310E00D89001A003D002E3018001D0019001A06C
:10311E000BD0010E02011D6F7AEC08F0020E0101B8
:0A312E003D6F020E006E00D012008B
:1031380002011451020AD8A45ED0030E366F010EA4
:10314800376F990E386FD80E396F000E3A6F16EC3C
:1031580001F081A804D081A402D0018001D001909F
:1031680081A404D081A002D0D88001D0D89001B029
:1031780003D002E2019001D0018081A804D081A08F
:1031880002D0D88001D0D89001B003D002E20190DB
:1031980001D0018001A006D0070E0001E46F070EE0
:1031A800006E29D083A804D081A602D0018001D066
:1031B800019081A604D081A202D0D88001D0D890F5
:1031C80001B003D002E2019001D0018083A804D0AD
:1031D80081A202D0D88001D0D89001B003D002E2F9
:1031E800019001D0018001A006D00001010EE46F1A
:0831F800010E006E00D0120070
:1032000002011451060AD8A41AD1030E366F010E1A
:10321000376FD10E386FD90E396F000E3A6F16EC3A
:1032200001F0366B376B020E386F92EC02F000C083
:1032300037F101C038F1030E366F000E376F020E02
:10324000386F92EC02F0004A012A00C035F101C04B
:1032500036F1030E1D6F000E1E6F00C01FF201C07D
:1032600020F2000E216F226F020E236F1AEC0AF07B
:10327000030E0201366F000E376F020E386F92ECAC
:1032800002F000C019F201C01AF202C01BF203C022
:103290001CF219C235F11AC236F137C100F038C13B
:1032A00001F065EC08F000C015F201C016F202C092
:1032B00017F203C018F219C200F01AC201F065EC4F
:1032C00008F015C204F016C205F017C206F018C2C5
:1032D00007F08DEC04F0000E046E000E056E000E7B
:1032E000066E800E076EA7EC07F000C039F101C032
:1032F0003AF102C03BF103C03CF1090E02011D6F1F
:10330000000E1E6FA0EC06F000C01FF201C020F2FC
:10331000000E216F226F020E236F1AEC0AF083A4B5
:1033200085D0090E0201366F000E376F020E386F1E
:1033300092EC02F000C02FF101C030F1070E366FA1
:10334000000E376F020E386F92EC02F000C02DF1C4
:1033500001C02EF1005001012F25336F01503021A3
:10336000346F0201366B376B020E386F92EC02F04D
:1033700000C015F201C016F202C017F203C018F225
:10338000030E366F000E376F020E386F92EC02F0AC
:1033900000501527015016230250172303501823FD
:1033A000000E366F090E376F020E386F92EC02F086
:1033B00000501527015016230250172303501823DD
:1033C000000E366F070E376F020E386F92EC02F068
:1033D00000501525056E01501621066E025017216A
:1033E000076E03501821086E05C000F006C001F0FA
:1033F00007C002F008C003F003320232013200328B
:10340000039E03BC038E00C031F101C032F1050EF2
:103410001D6F000E1E6F00C01FF201C020F2000ED3
:10342000216F226F020E236F1AEC0AF0010E0201C7
:103430001D6F7AEC08F001013D6B006A00D01200AC
:1034400002011451050AD8A465D0030E366F010E8F
:10345000376F680E386FD60E396F000E3A6F16EC64
:1034600001F0010E0001DF6F83B802D0018601D0A8
:10347000019681B602D0018001D0019001A604D04E
:1034800001A002D0018201D0019281B202D0018458
:1034900001D0019401A004D001A402D0D88001D0B1
:1034A000D89001B203D002E2019201D0018201B6AC
:1034B00002D0019001D0018001B402D0D89001D097
:1034C000D88001A003D002E3018001D0019001B2B5
:1034D00004D001B002D0D89001D0D88006E300011A
:1034E000080EE46F080E006E15D081A804D081A4E8
:1034F00002D0D88001D0D89004E381A002D001800E
:1035000001D0019001A006D00001060EE46F060E66
:06351000006E00D0120065
:1035160002011451040AD8A496D0030E366F010E88
:10352600376FC80E386FD90E396F000E3A6F16EC2A
:1035360001F081B802D0018001D0019081B402D09F
:10354600D88001D0D89001B003D002E2019001D01A
:10355600018081B002D0D88001D0D89001B003D0CC
:1035660002E2019801D0018883B802D0018601D019
:10357600019681B602D0018001D0019001A604D047
:1035860001A002D0018201D0019281B202D0018451
:1035960001D0019401A004D001A402D0D88001D0AA
:1035A600D89001B203D002E2019201D0018201B6A5
:1035B60002D0019001D0018001B402D0D89001D090
:1035C600D88001A003D002E3018001D0019001B2AE
:1035D60004D001B002D0D89001D0D88001A803D081
:1035E60002E3018001D0019001A006D0080E00017F
:1035F600E46F080E006E27D083A804D081A602D0FF
:10360600018001D0019081A604D081A202D0D88089
:1036160001D0D89001B003D002E2019001D0018020
:1036260083A804D081A202D0D88001D0D89001B05E
:1036360003D002E2019001D0018001A004D0000174
:08364600E46B006A00D01200E1
:10364E0002011451030AD8A40CD1030E366F010ED9
:10365E00376F7A0E386FD60E396F000E3A6F16EC42
:10366E0001F0030E366F000E376F020E386F92ECBC
:10367E0002F000C035F101C036F1366B376B020E29
:10368E00386F92EC02F0004A012A00C037F101C0F7
:10369E0038F11D6B1E6B00C01FF201C020F2000E30
:1036AE00216F226F020E236F1AEC0AF00201366BA5
:1036BE00376B020E386F92EC02F000C037F101C08A
:1036CE0038F165EC08F000C015F201C016F202C028
:1036DE0017F203C018F235C100F036C101F065ECE7
:1036EE0008F015C204F016C205F017C206F018C293
:1036FE0007F08DEC04F0000E046E000E056E000E49
:10370E00066E800E076EA7EC07F000C039F101C0FF
:10371E003AF102C03BF103C03CF1090E02011D6FEC
:10372E00000E1E6FA0EC06F000C01FF201C020F2CA
:10373E00000E216F226F020E236F1AEC0AF083A483
:10374E0085D0090E0201366F000E376F020E386FEC
:10375E0092EC02F000C02FF101C030F1070E366F6F
:10376E00000E376F020E386F92EC02F000C02DF192
:10377E0001C02EF1005001012F25336F0150302171
:10378E00346F0201366B376B020E386F92EC02F01B
:10379E0000C015F201C016F202C017F203C018F2F3
:1037AE00030E366F000E376F020E386F92EC02F07A
:1037BE0000501527015016230250172303501823CB
:1037CE00000E366F090E376F020E386F92EC02F054
:1037DE0000501527015016230250172303501823AB
:1037EE00000E366F070E376F020E386F92EC02F036
:1037FE0000501525056E01501621066E0250172138
:10380E00076E03501821086E05C000F006C001F0C7
:10381E0007C002F008C003F0033202320132003258
:10382E00039E03BC038E00C031F101C032F1050EC0
:10383E001D6F000E1E6F00C01FF201C020F2000EA1
:10384E00216F226F020E236F1AEC0AF0010E020195
:10385E001D6F7AEC08F00001E36BE66BE46B006A17
:04386E0000D0120074
:1038720002011451080AD8A45ED0030E366F010E5D
:10388200376F8C0E386FD80E396F000E3A6F16EC08
:1038920001F083A804D081A602D0018001D001905A
:1038A20081A604D081A202D0D88001D0D89001B0E4
:1038B20003D002E2019001D0018083A804D081A24A
:1038C20002D0D88001D0D89001B003D002E201909A
:1038D20001D0018001A006D0050E0001E46F050EA3
:1038E200006E29D081A804D081A402D0018001D029
:1038F200019081A404D081A002D0D88001D0D890B8
:1039020001B003D002E2019001D0018081A804D06D
:1039120081A002D0D88001D0D89001B003D002E2B9
:10392200019001D0018001A006D00001040EE46FD5
:08393200040E006E00D012002B
:10393A0002011451010A39E1030E366F010E376F85
:10394A00850E386FDA0E396F000E3A6F16EC01F0F9
:10395A0081A804D081A002D0D88001D0D89008E3F1
:10396A00010E1D6F7AEC08F001013D6B006A1DD053
:10397A0083B802D0018001D0019081B202D0D880F0
:10398A0001D0D89001A003D002E3018001D00190B8
:10399A0001A00BD0010E02011D6F7AEC08F0020E95
:0C39AA0001013D6F020E006E00D0120003
:1039B60002011451070A3BE1030E366F010E376F01
:1039C600F90E386FD50E396F000E3A6F16EC01F00E
:1039D60081B402D0018001D0019081B002D0D8809C
:1039E60001D0D89001A003D002E3018001D001905C
:1039F60001A00AD0010E1D6F7AEC08F0020E01013B
:103A06003D6F020E006E13D081A604D081A202D0B3
:103A1600D88001D0D8900BE3010E02011D6F7AEC1D
:103A260008F0030E01013D6F030E006E00D0120078
:103A360002011451030AD8A417D1030E366F010EE2
:103A4600376FE60E386FD60E396F000E3A6F16ECEA
:103A560001F0090E0B6EE10E0C6EB20E0D6E0D2E00
:103A6600FED70C2EFCD70B2EFAD70000030E366FAE
:103A7600000E376F020E386F92EC02F000C035F17F
:103A860001C036F1366B376B020E386F92EC02F0DE
:103A9600004A012A00C037F101C038F11D6B1E6BC8
:103AA60000C01FF201C020F2000E216F226F020E2D
:103AB600236F1AEC0AF00201366B376B020E386F71
:103AC60092EC02F000C037F101C038F165EC08F065
:103AD60000C015F201C016F202C017F203C018F2B8
:103AE60035C100F036C101F065EC08F015C204F0EE
:103AF60016C205F017C206F018C207F08DEC04F0E6
:103B0600000E046E000E056E000E066E800E076E29
:103B1600A7EC07F000C039F101C03AF102C03BF151
:103B260003C03CF1090E02011D6F000E1E6FA0ECD2
:103B360006F000C01FF201C020F2000E216F226FB6
:103B4600020E236F1AEC0AF083A485D0090E020137
:103B5600366F000E376F020E386F92EC02F000C01F
:103B66002FF101C030F1070E366F000E376F020ECF
:103B7600386F92EC02F000C02DF101C02EF100501A
:103B860001012F25336F01503021346F0201366B4E
:103B9600376B020E386F92EC02F000C015F201C0CE
:103BA60016F202C017F203C018F2030E366F000EAB
:103BB600376F020E386F92EC02F000501527015055
:103BC60016230250172303501823000E366F090ED2
:103BD600376F020E386F92EC02F000501527015035
:103BE60016230250172303501823000E366F070EB4
:103BF600376F020E386F92EC02F000501525056EF5
:103C060001501621066E02501721076E0350182127
:103C1600086E05C000F006C001F007C002F008C03B
:103C260003F00332023201320032039E03BC038EDC
:103C360000C031F101C032F1050E1D6F000E1E6F7E
:103C460000C01FF201C020F2000E216F226F020E8B
:103C5600236F1AEC0AF0010E02011D6F7AEC08F0D0
:0A3C660001013D6B006A00D012005E
:103C700002011451000A3BE18BEC08F081B802D03C
:103C8000018001D0019081B002D0D88001D0D890BD
:103C900001B003D002E2019001D0018001A00AD05E
:103CA000010E1D6F7AEC08F0010E01013D6F010E4F
:103CB000006E1DD083B802D0018001D0019081B286
:103CC00002D0D88001D0D89001B003D002E2019098
:103CD00001D0018001A00BD0010E02011D6F7AEC12
:103CE00008F0040E01013D6F040E006E00D01200BA
:103CF00002011451070AD8A462D0030E366F010ED8
:103D0000376F870E386FD50E396F000E3A6F16EC8D
:103D100001F081B802D0018601D0019681B402D0B1
:103D2000018001D0019001A604D001A002D001823F
:103D300001D0019281B002D0018401D0019401A090
:103D400004D001A402D0D88001D0D89001B203D011
:103D500002E2019201D0018201B602D0019001D0AD
:103D6000018001B402D0D89001D0D88001A003D046
:103D700002E3018001D0019001B204D001B002D071
:103D8000D89001D0D88006E3020E0001E46F020E45
:103D9000006E15D083A804D081A602D0D88001D0AF
:103DA000D89004E381A202D0018001D0019001A04B
:103DB00006D00001030EE46F030E006E00D0120067
:103DC00002011451020A4EE1030E366F010E376FE5
:103DD0003F0E386FD90E396F000E3A6F16EC01F0B6
:103DE00081A404D081A002D0D88001D0D8900AE369
:103DF000010E1D6F7AEC08F0070E01013D6F070EF2
:103E0000006E30D081A604D081A202D0018001D002
:103E1000019081B402D0D88001D0D89001A003D005
:103E200002E3018201D0019281B002D0D88001D09A
:103E3000D89001A003D002E3018001D0019001B22B
:103E400004D001B002D0D89001D0D8800BE3010E8D
:103E500002011D6F7AEC08F0010E01013D6F010EA9
:063E6000006E00D012000C
:103E660002011451060AD8A41BD1030E366F010EA7
:103E7600376FBB0E386FDA0E396F000E3A6F16ECDD
:103E860001F0366B376B020E386F92EC02F000C011
:103E960037F101C038F1030E366F000E376F020E90
:103EA600386F92EC02F0004A012A00C035F101C0D9
:103EB60036F1030E1D6F000E1E6F00C01FF201C00B
:103EC60020F2000E216F226F020E236F1AEC0AF009
:103ED600030E0201366F000E376F020E386F92EC3A
:103EE60002F000C019F201C01AF202C01BF203C0B0
:103EF6001CF219C235F11AC236F137C100F038C1C9
:103F060001F065EC08F000C015F201C016F202C01F
:103F160017F203C018F219C200F01AC201F065ECDC
:103F260008F015C204F016C205F017C206F018C252
:103F360007F08DEC04F0000E046E000E056E000E08
:103F4600066E800E076EA7EC07F000C039F101C0BF
:103F56003AF102C03BF103C03CF1090E02011D6FAC
:103F6600000E1E6F0EEC07F000C01FF201C020F21B
:103F760002C021F203C022F2020E236F1AEC0AF0ED
:103F860083A485D0090E0201366F000E376F020E2C
:103F9600386F92EC02F000C02FF101C030F1070E2D
:103FA600366F000E376F020E386F92EC02F000C0CB
:103FB6002DF101C02EF1005001012F25336F015064
:103FC6003021346F0201366B376B020E386F92EC7C
:103FD60002F000C015F201C016F202C017F203C0CB
:103FE60018F2030E366F000E376F020E386F92EC22
:103FF60002F00050152701501623025017230350D4
:104006001823000E366F090E376F020E386F92ECCA
:1040160002F00050152701501623025017230350B3
:104026001823000E366F070E376F020E386F92ECAC
:1040360002F000501525056E01501621066E02503D
:104046001721076E03501821086E05C000F006C040
:1040560001F007C002F008C003F003320232013259
:104066000032039E03BC038E00C031F101C032F161
:10407600050E1D6F000E1E6F00C01FF201C020F25C
:10408600000E216F226F020E236F1AEC0AF0010E4A
:1040960002011D6F7AEC08F001013D6B006A00D049
:0240A600120006
:1040A80002011451070A53E1030E366F010E376FF0
:1040B800C00E386FD50E396F000E3A6F16EC01F04E
:1040C80081B402D0018001D0019081B802D0D8809B
:1040D80001D0D89001B003D002E2019001D0018054
:1040E80081B002D0D88001D0D89001B003D002E2CC
:1040F800019001D0018001A00AD0010E1D6F7AEC59
:1041080008F0020E01013D6F020E006E20D081A260
:1041180004D081A802D0D88001D0D89004E381A42B
:1041280002D0018001D0019001A004D081A002D06A
:10413800D88001D0D8900BE3010E02011D6F7AECF4
:1041480008F0030E01013D6F030E006E00D012004F
:1041580002011451030AD8A417D1030E366F010EB9
:10416800376FC20E386FD60E396F000E3A6F16ECE5
:1041780001F0090E0B6EE10E0C6EB20E0D6E0D2ED7
:10418800FED70C2EFCD70B2EFAD70000030E366F85
:10419800000E376F020E386F92EC02F000C035F156
:1041A80001C036F1366B376B020E386F92EC02F0B5
:1041B800004A012A00C037F101C038F11D6B1E6B9F
:1041C80000C01FF201C020F2000E216F226F020E04
:1041D800236F1AEC0AF00201366B376B020E386F48
:1041E80092EC02F000C037F101C038F165EC08F03C
:1041F80000C015F201C016F202C017F203C018F28F
:1042080035C100F036C101F065EC08F015C204F0C4
:1042180016C205F017C206F018C207F08DEC04F0BC
:10422800000E046E000E056E000E066E800E076E00
:10423800A7EC07F000C039F101C03AF102C03BF128
:1042480003C03CF1090E02011D6F000E1E6FA0ECA9
:1042580006F000C01FF201C020F2000E216F226F8D
:10426800020E236F1AEC0AF083A485D0090E02010E
:10427800366F000E376F020E386F92EC02F000C0F6
:104288002FF101C030F1070E366F000E376F020EA6
:10429800386F92EC02F000C02DF101C02EF10050F1
:1042A80001012F25336F01503021346F0201366B25
:1042B800376B020E386F92EC02F000C015F201C0A5
:1042C80016F202C017F203C018F2030E366F000E82
:1042D800376F020E386F92EC02F00050152701502C
:1042E80016230250172303501823000E366F090EA9
:1042F800376F020E386F92EC02F00050152701500C
:1043080016230250172303501823000E366F070E8A
:10431800376F020E386F92EC02F000501525056ECB
:1043280001501621066E02501721076E03501821FE
:10433800086E05C000F006C001F007C002F008C012
:1043480003F00332023201320032039E03BC038EB3
:1043580000C031F101C032F1050E1D6F000E1E6F55
:1043680000C01FF201C020F2000E216F226F020E62
:10437800236F1AEC0AF0010E02011D6F7AEC08F0A7
:0A43880001013D6B006A00D0120035
:1043920002011451040A5CE1030E366F010E376FFD
:1043A200730E386FDA0E396F000E3A6F16EC01F0A9
:1043B20081B802D0018601D0019681B402D0018079
:1043C20001D0019001A604D001A002D0018201D047
:1043D200019281B002D0018401D0019401A004D0E5
:1043E20001A402D0D88001D0D89001B203D002E259
:1043F200019201D0018201B602D0019001D0018068
:1044020001B402D0D89001D0D88001A003D002E339
:10441200018001D0019001B204D001B002D0D89045
:1044220001D0D8800AE3010E1D6F7AEC08F0080E65
:1044320001013D6F080E006E0BD081A209D0010E62
:1044420002011D6F7AEC08F001013D6B006A00D099
:02445200120056
:1044540002011451020AD8A460D0030E366F010E73
:10446400376F290E386FD90E396F000E3A6F16EC7C
:1044740001F081A804D081A402D0D88001D0D890C2
:1044840004E381A002D0018001D0019001A00AD0F0
:10449400010E1D6F7AEC08F0070E0001E46F070EA1
:1044A400006E3BD081B802D0D88001D0D89081A2D0
:1044B40003D002E3018201D0019281B402D0D880FA
:1044C40001D0D89081A203D002E3018001D00190F1
:1044D40001B204D001B002D0019201D0018281B0B6
:1044E40002D0D88001D0D89081A203D002E3018009
:1044F40001D0019001B204D001B002D0D89001D013
:10450400D8800BE3010E02011D6F7AEC08F0010E56
:0C4514000001E46F010E006E00D01200E8
:1045200002011451010A5CE1030E366F010E376F70
:10453000FE0E386FD90E396F000E3A6F16EC01F08F
:1045400081A008D0010E1D6F7AEC08F001013D6BCF
:10455000006A46D083B802D0018601D0019681B6A8
:1045600002D0018001D0019001A604D001A002D0A8
:10457000018201D0019281B202D0018401D0019464
:1045800001A004D001A402D0D88001D0D89001B2FB
:1045900003D002E2019201D0018201B602D0019063
:1045A00001D0018001B402D0D89001D0D88001A000
:1045B00003D002E3018001D0019001B204D001B028
:1045C00002D0D89001D0D8800BE3010E02011D6FFC
:1045D0007AEC08F0020E01013D6F020E006E00D071
:0245E0001200C7
:1045E20002011451060AD8A41BD1030E366F010E24
:1045F200376FA00E386FDA0E396F000E3A6F16EC75
:1046020001F0366B376B020E386F92EC02F000C08D
:1046120037F101C038F1030E366F000E376F020E0C
:10462200386F92EC02F0004A012A00C035F101C055
:1046320036F1030E1D6F000E1E6F00C01FF201C087
:1046420020F2000E216F226F020E236F1AEC0AF085
:10465200030E0201366F000E376F020E386F92ECB6
:1046620002F000C019F201C01AF202C01BF203C02C
:104672001CF219C235F11AC236F137C100F038C145
:1046820001F065EC08F000C015F201C016F202C09C
:1046920017F203C018F219C200F01AC201F065EC59
:1046A20008F015C204F016C205F017C206F018C2CF
:1046B20007F08DEC04F0000E046E000E056E000E85
:1046C200066E800E076EA7EC07F000C039F101C03C
:1046D2003AF102C03BF103C03CF1090E02011D6F29
:1046E200000E1E6F0EEC07F000C01FF201C020F298
:1046F20002C021F203C022F2020E236F1AEC0AF06A
:1047020083A485D0090E0201366F000E376F020EA8
:10471200386F92EC02F000C02FF101C030F1070EA9
:10472200366F000E376F020E386F92EC02F000C047
:104732002DF101C02EF1005001012F25336F0150E0
:104742003021346F0201366B376B020E386F92ECF8
:1047520002F000C015F201C016F202C017F203C047
:1047620018F2030E366F000E376F020E386F92EC9E
:1047720002F0005015270150162302501723035050
:104782001823000E366F090E376F020E386F92EC47
:1047920002F0005015270150162302501723035030
:1047A2001823000E366F070E376F020E386F92EC29
:1047B20002F000501525056E01501621066E0250BA
:1047C2001721076E03501821086E05C000F006C0BD
:1047D20001F007C002F008C003F0033202320132D6
:1047E2000032039E03BC038E00C031F101C032F1DE
:1047F200050E1D6F000E1E6F00C01FF201C020F2D9
:10480200000E216F226F020E236F1AEC0AF0010EC6
:1048120002011D6F7AEC08F001013D6B006A00D0C5
:02482200120082
:1048240002011451010A30E1030E366F010E376F95
:10483400F10E386FDA0E396F000E3A6F16EC01F094
:1048440081A804D081A402D0D88001D0D89004E3F8
:1048540081A002D0018001D0019001A008D0010EF6
:104864001D6F7AEC08F001013D6B006A0DD081B236
:104874000BD0010E02011D6F7AEC08F0020E01014B
:0A4884003D6F020E006E00D012001E
:10488E0002011451000A36E18BEC08F081B802D017
:10489E00018001D0019081B402D0D88001D0D8908F
:1048AE0001B003D002E2019001D0018081B002D0AC
:1048BE00D88001D0D89001B003D002E2019001D08F
:1048CE00018001A00AD0010E1D6F7AEC08F0010ED6
:1048DE0001013D6F010E006E0DD081B20BD0010EA5
:1048EE0002011D6F7AEC08F0040E01013D6F040EFB
:0648FE00006E00D0120064
:1049040002011451000A36E18BEC08F081B802D0A0
:10491400018001D0019081B402D0D88001D0D89018
:1049240001B003D002E2019001D0018081B002D035
:10493400D88001D0D89001B003D002E2019001D018
:10494400018001A00AD0010E1D6F7AEC08F0010E5F
:1049540001013D6F010E006E0DD083B80BD0010E26
:1049640002011D6F7AEC08F0040E01013D6F040E84
:06497400006E00D01200ED
:10497A0002011451050A53E1030E366F010E376F17
:10498A00640E386FD70E396F000E3A6F16EC01F0CD
:10499A0083B802D0018001D0019081B602D0D880BC
:1049AA0001D0D89001B003D002E2019001D0018079
:1049BA0081B202D0D88001D0D89001B003D002E2EF
:1049CA00019001D0018001A00AD0010E1D6F7AEC7E
:1049DA0008F0080E01013D6F080E006E20D081A874
:1049EA0004D081A402D0D88001D0D89004E381A059
:1049FA0002D0018001D0019001A004D083A802D086
:104A0A00D88001D0D8900BE3010E02011D6F7AEC19
:104A1A0008F0060E01013D6F060E006E00D012006E
:104A2A0002011451080A3DE1030E366F010E376F79
:104A3A00A20E386FD90E396F000E3A6F16EC01F0DC
:104A4A0083A80AD0010E1D6F7AEC08F0050E010149
:104A5A003D6F050E006E25D081A804D081A402D036
:104A6A00D88001D0D89004E381A002D0018001D07F
:104A7A00019083B802D0D88001D0D89001A003D089
:104A8A0002E3018001D0019001A00BD0010E0201C6
:104A9A001D6F7AEC08F0040E01013D6F040E006EE2
:044AAA0000D0120026
:104AAE00086A096A100E0C6E013408360936045075
:104ABE00085E0550D8A0053C095ED8B007D004505A
:104ACE0008260550D8B0053C0926D8900036013688
:064ADE000C2EEAD71200C5
:104AE40002011451020AD8A460D0030E366F010EDD
:104AF400376F4A0E386FD90E396F000E3A6F16ECC5
:104B040001F081A804D081A402D0D88001D0D8902B
:104B140004E381A002D0018001D0019001A00AD059
:104B2400010E1D6F7AEC08F0070E01013D6F070EB0
:104B3400006E3BD081B802D0D88001D0D89083A831
:104B440003D002E3018201D0019281B402D0D88063
:104B540001D0D89083A803D002E3018001D0019052
:104B640001B204D001B002D0019201D0018281B01F
:104B740002D0D88001D0D89083A803D002E301806A
:104B840001D0019001B204D001B002D0D89001D07C
:104B9400D8800BE3010E02011D6F7AEC08F0010EC0
:0C4BA40001013D6F010E006E00D01200F8
:104BB00002011451040A5CE1030E366F010E376FD7
:104BC000030E386FDB0E396F000E3A6F16EC01F0F2
:104BD00081B802D0018601D0019681B402D0018053
:104BE00001D0019001A604D001A002D0018201D021
:104BF000019281B002D0018401D0019401A004D0BF
:104C000001A402D0D88001D0D89001B203D002E232
:104C1000019201D0018201B602D0019001D0018041
:104C200001B402D0D89001D0D88001A003D002E313
:104C3000018001D0019001B204D001B002D0D8901F
:104C400001D0D8800AE3010E1D6F7AEC08F0080E3F
:104C500001013D6F080E006E0BD083A809D0010E34
:104C600002011D6F7AEC08F001013D6B006A00D073
:024C7000120030
:104C720002011451050A38E1030E366F010E376F37
:104C82000A0E386FD70E396F000E3A6F16EC01F02C
:104C920081B20AD0010E1D6F7AEC08F0080E0101F4
:104CA2003D6F080E006E20D081A804D081A402D0EE
:104CB200D88001D0D89004E381A002D0018001D035
:104CC200019001A004D081A202D0D88001D0D89056
:104CD2000BE3010E02011D6F7AEC08F0060E0101D2
:0A4CE2003D6F060E006E00D01200B8
:104CEC0002011451010A30E1030E366F010E376FC9
:104CFC000C0E386FDB0E396F000E3A6F16EC01F0AC
:104D0C0081A804D081A402D0D88001D0D89004E32B
:104D1C0081A002D0018001D0019001A008D0010E29
:104D2C001D6F7AEC08F001013D6B006A0DD083B861
:104D3C000BD0010E02011D6F7AEC08F0020E01017E
:0A4D4C003D6F020E006E00D0120051
:104D560002011451060AD8A41BD1030E366F010EA8
:104D6600376FD60E386FDA0E396F000E3A6F16ECC3
:104D760001F0366B376B020E386F92EC02F000C012
:104D860037F101C038F1030E366F000E376F020E91
:104D9600386F92EC02F0004A012A00C035F101C0DA
:104DA60036F1030E1D6F000E1E6F00C01FF201C00C
:104DB60020F2000E216F226F020E236F1AEC0AF00A
:104DC600030E0201366F000E376F020E386F92EC3B
:104DD60002F000C019F201C01AF202C01BF203C0B1
:104DE6001CF219C235F11AC236F137C100F038C1CA
:104DF60001F065EC08F000C015F201C016F202C021
:104E060017F203C018F219C200F01AC201F065ECDD
:104E160008F015C204F016C205F017C206F018C253
:104E260007F08DEC04F0000E046E000E056E000E09
:104E3600066E800E076EA7EC07F000C039F101C0C0
:104E46003AF102C03BF103C03CF1090E02011D6FAD
:104E5600000E1E6F0EEC07F000C01FF201C020F21C
:104E660002C021F203C022F2020E236F1AEC0AF0EE
:104E760083A485D0090E0201366F000E376F020E2D
:104E8600386F92EC02F000C02FF101C030F1070E2E
:104E9600366F000E376F020E386F92EC02F000C0CC
:104EA6002DF101C02EF1005001012F25336F015065
:104EB6003021346F0201366B376B020E386F92EC7D
:104EC60002F000C015F201C016F202C017F203C0CC
:104ED60018F2030E366F000E376F020E386F92EC23
:104EE60002F00050152701501623025017230350D5
:104EF6001823000E366F090E376F020E386F92ECCC
:104F060002F00050152701501623025017230350B4
:104F16001823000E366F070E376F020E386F92ECAD
:104F260002F000501525056E01501621066E02503E
:104F36001721076E03501821086E05C000F006C041
:104F460001F007C002F008C003F00332023201325A
:104F56000032039E03BC038E00C031F101C032F162
:104F6600050E1D6F000E1E6F00C01FF201C020F25D
:104F7600000E216F226F020E236F1AEC0AF0010E4B
:104F860002011D6F7AEC08F001013D6B006A00D04A
:024F9600120007
:104F980002011451060AD8A41BD1030E366F010E64
:104FA800376F7C0E386FDA0E396F000E3A6F16ECD9
:104FB80001F0366B376B020E386F92EC02F000C0CE
:104FC80037F101C038F1030E366F000E376F020E4D
:104FD800386F92EC02F0004A012A00C035F101C096
:104FE80036F1030E1D6F000E1E6F00C01FF201C0C8
:104FF80020F2000E216F226F020E236F1AEC0AF0C6
:10500800030E0201366F000E376F020E386F92ECF6
:1050180002F000C019F201C01AF202C01BF203C06C
:105028001CF219C235F11AC236F137C100F038C185
:1050380001F065EC08F000C015F201C016F202C0DC
:1050480017F203C018F219C200F01AC201F065EC99
:1050580008F015C204F016C205F017C206F018C20F
:1050680007F08DEC04F0000E046E000E056E000EC5
:10507800066E800E076EA7EC07F000C039F101C07C
:105088003AF102C03BF103C03CF1090E02011D6F69
:10509800000E1E6F0EEC07F000C01FF201C020F2D8
:1050A80002C021F203C022F2020E236F1AEC0AF0AA
:1050B80083A485D0090E0201366F000E376F020EE9
:1050C800386F92EC02F000C02FF101C030F1070EEA
:1050D800366F000E376F020E386F92EC02F000C088
:1050E8002DF101C02EF1005001012F25336F015021
:1050F8003021346F0201366B376B020E386F92EC39
:1051080002F000C015F201C016F202C017F203C087
:1051180018F2030E366F000E376F020E386F92ECDE
:1051280002F0005015270150162302501723035090
:105138001823000E366F090E376F020E386F92EC87
:1051480002F0005015270150162302501723035070
:105158001823000E366F070E376F020E386F92EC69
:1051680002F000501525056E01501621066E0250FA
:105178001721076E03501821086E05C000F006C0FD
:1051880001F007C002F008C003F003320232013216
:105198000032039E03BC038E00C031F101C032F11E
:1051A800050E1D6F000E1E6F00C01FF201C020F219
:1051B800000E216F226F020E236F1AEC0AF0010E07
:1051C80002011D6F7AEC08F001013D6B006A00D006
:0251D8001200C3
:1051DA0002011451050A53E1030E366F010E376FAF
:1051EA00320E386FD60E396F000E3A6F16EC01F098
:1051FA0083B802D0018001D0019081B602D0D88054
:10520A0001D0D89001B003D002E2019001D0018010
:10521A0081B202D0D88001D0D89001B003D002E286
:10522A00019001D0018001A00AD0010E1D6F7AEC15
:10523A0008F0080E01013D6F080E006E20D083A809
:10524A0004D081A602D0D88001D0D89004E381A2EC
:10525A0002D0018001D0019081A004D001A002D027
:10526A00D88001D0D8900BE3010E02011D6F7AECB1
:10527A0008F0060E01013D6F060E006E00D0120006
:10528A0002011451080AD8A460D0030E366F010E29
:10529A00376FBB0E386FD80E396F000E3A6F16ECA7
:1052AA0001F083A804D081A602D0D88001D0D8907A
:1052BA0004E381A202D0018001D0019001A00AD0AA
:1052CA00010E1D6F7AEC08F0050E01013D6F050E07
:1052DA00006E3BD083B802D0D88001D0D89081A08C
:1052EA0003D002E3018201D0019281B602D0D880B4
:1052FA0001D0D89081A003D002E3018001D00190AF
:10530A0001B204D001B002D0019201D0018281B26F
:10531A0002D0D88001D0D89081A003D002E30180C6
:10532A0001D0019001B204D001B002D0D89001D0CE
:10533A00D8800BE3010E02011D6F7AEC08F0040E0F
:0C534A0001013D6F040E006E00D0120047
:1053560002011451070A38E1030E366F010E376F4A
:105366001F0E386FD60E396F000E3A6F16EC01F02D
:1053760081B00AD0010E1D6F7AEC08F0020E010111
:105386003D6F020E006E20D083A804D081A602D005
:10539600D88001D0D89004E381A202D0018001D048
:1053A600019001A004D081A002D0D88001D0D8906D
:1053B6000BE3010E02011D6F7AEC08F0030E0101EA
:0A53C6003D6F030E006E00D01200D0
:1053D00002011451000A36E18BEC08F081B00AD0CA
:1053E000010E1D6F7AEC08F0010E01013D6F010EF8
:1053F000006E28D083B802D0018001D0019081B620
:1054000002D0D88001D0D89001B003D002E2019040
:1054100001D0018081B202D0D88001D0D89001B0F3
:1054200003D002E2019001D0018001A00BD0010E57
:1054300002011D6F7AEC08F0040E01013D6F040EAD
:06544000006E00D0120016
:1054460002011451080A3DE1030E366F010E376F53
:10545600340E386FD90E396F000E3A6F16EC01F024
:1054660081A20AD0010E1D6F7AEC08F0050E01012B
:105476003D6F050E006E25D081A804D081A402D010
:10548600D88001D0D89004E381A002D0018001D059
:10549600019081B202D0D88001D0D89001A003D06B
:1054A60002E3018001D0019001A00BD0010E0201A0
:1054B6001D6F7AEC08F0040E01013D6F040E006EBC
:0454C60000D0120000
:1054CA0002011451000A3BE18BEC08F081B802D0CA
:1054DA00018001D0019081B402D0D88001D0D89047
:1054EA0001B003D002E2019001D0018001A00AD0EC
:1054FA00010E1D6F7AEC08F0010E01013D6F010EDD
:10550A00006E1DD083B802D0018001D0019081B60F
:10551A0002D0D88001D0D89001B003D002E2019025
:10552A0001D0018001A00BD0010E02011D6F7AEC9F
:10553A0008F0040E01013D6F040E006E00D0120047
:10554A0002011451060AD8A41BD1030E366F010EAC
:10555A00376F220E386FDA0E396F000E3A6F16EC7B
:10556A0001F0366B376B020E386F92EC02F000C016
:10557A0037F101C038F1030E366F000E376F020E95
:10558A00386F92EC02F0004A012A00C035F101C0DE
:10559A0036F1030E1D6F000E1E6F00C01FF201C010
:1055AA0020F2000E216F226F020E236F1AEC0AF00E
:1055BA00030E0201366F000E376F020E386F92EC3F
:1055CA0002F000C019F201C01AF202C01BF203C0B5
:1055DA001CF219C235F11AC236F137C100F038C1CE
:1055EA0001F065EC08F000C015F201C016F202C025
:1055FA0017F203C018F219C200F01AC201F065ECE2
:10560A0008F015C204F016C205F017C206F018C257
:10561A0007F08DEC04F0000E046E000E056E000E0D
:10562A00066E800E076EA7EC07F000C039F101C0C4
:10563A003AF102C03BF103C03CF1090E02011D6FB1
:10564A00000E1E6F0EEC07F000C01FF201C020F220
:10565A0002C021F203C022F2020E236F1AEC0AF0F2
:10566A0083A485D0090E0201366F000E376F020E31
:10567A00386F92EC02F000C02FF101C030F1070E32
:10568A00366F000E376F020E386F92EC02F000C0D0
:10569A002DF101C02EF1005001012F25336F015069
:1056AA003021346F0201366B376B020E386F92EC81
:1056BA0002F000C015F201C016F202C017F203C0D0
:1056CA0018F2030E366F000E376F020E386F92EC27
:1056DA0002F00050152701501623025017230350D9
:1056EA001823000E366F090E376F020E386F92ECD0
:1056FA0002F00050152701501623025017230350B9
:10570A001823000E366F070E376F020E386F92ECB1
:10571A0002F000501525056E01501621066E025042
:10572A001721076E03501821086E05C000F006C045
:10573A0001F007C002F008C003F00332023201325E
:10574A000032039E03BC038E00C031F101C032F166
:10575A00050E1D6F000E1E6F00C01FF201C020F261
:10576A00000E216F226F020E236F1AEC0AF0010E4F
:10577A0002011D6F7AEC08F001013D6B006A00D04E
:02578A0012000B
:10578C0002011451020A4EE1030E366F010E376FFF
:10579C00760E386FD90E396F000E3A6F16EC01F099
:1057AC0081A804D081A402D0D88001D0D8900AE37B
:1057BC00010E1D6F7AEC08F0070E01013D6F070E0C
:1057CC00006E30D083A804D081A602D0018001D015
:1057DC00019081B802D0D88001D0D89001A003D01C
:1057EC0002E3018201D0019281B402D0D88001D0B1
:1057FC00D89001A003D002E3018001D0019001B246
:10580C0004D001B002D0D89001D0D8800BE3010EA7
:10581C0002011D6F7AEC08F0010E01013D6F010EC3
:06582C00006E00D0120026
:1058320002011451010A39E1030E366F010E376F6E
:105842007D0E386FD80E396F000E3A6F16EC01F0EC
:1058520081A804D081A402D0D88001D0D89008E3D6
:10586200010E1D6F7AEC08F001013D6B006A1DD03C
:1058720083B802D0018001D0019081B602D0D880D5
:1058820001D0D89001A003D002E3018001D00190A1
:1058920001A00BD0010E02011D6F7AEC08F0020E7E
:0C58A20001013D6F020E006E00D01200EC
:1058AE0002011451050A53E1030E366F010E376FD4
:1058BE009E0E386FD60E396F000E3A6F16EC01F051
:1058CE0083B802D0018001D0019081B602D0D88079
:1058DE0001D0D89001B003D002E2019001D0018036
:1058EE0081B202D0D88001D0D89001B003D002E2AC
:1058FE00019001D0018001A00AD0010E1D6F7AEC3B
:10590E0008F0080E01013D6F080E006E20D083A82E
:10591E0004D081A602D0D88001D0D89004E381A211
:10592E0002D0018001D0019081A804D001A002D044
:10593E00D88001D0D8900BE3010E02011D6F7AECD6
:10594E0008F0060E01013D6F060E006E00D012002B
:10595E0002011451080AD8A460D0030E366F010E4E
:10596E00376F1E0E386FD90E396F000E3A6F16EC68
:10597E0001F083A804D081A602D0D88001D0D8909F
:10598E0004E381A202D0018001D0019001A00AD0CF
:10599E00010E1D6F7AEC08F0050E01013D6F050E2C
:1059AE00006E3BD083B802D0D88001D0D89081A8A9
:1059BE0003D002E3018201D0019281B602D0D880D9
:1059CE0001D0D89081A803D002E3018001D00190CC
:1059DE0001B204D001B002D0019201D0018281B295
:1059EE0002D0D88001D0D89081A803D002E30180E4
:1059FE0001D0019001B204D001B002D0D89001D0F4
:105A0E00D8800BE3010E02011D6F7AEC08F0040E34
:0C5A1E0001013D6F040E006E00D012006C
